S00F00004F48432D5247422E7372656333
S113000019C0ADC332C031C030C02FC02EC02DC006
S11300102CC02BC02AC029C028C027C026C025C098
S11300209BC423C022C00AC1B2C01FC01EC01DC0D1
S11300301CC01BC011241FBECFEFD4E0DEBFCDBF58
S113004011E0A0E0B1E0EEE4F1E102C005900D9210
S1130050AE36B107D9F722E0AEE6B1E001C01D9299
S1130060A038B207E1F7D9D370C8CACF89E190E0CC
S11300709093C5008093C4008EE08093C2000895DD
S1130080E1ECF0E08081886480830895E0910601CA
S1130090F0910701819382E0E937F80710F0E9E76E
S11300A0F1E02091060130910701809108019091BF
S11300B009012817390729F4A1ECB0E08C9180627A
S11300C08C93F0930701E093060180917501909160
S11300D07601A0917701B09178010196A11DB11D1F
S11300E08093750190937601A0937701B093780182
S11300F00895CF93DF93EC01E1ECF0E080818F7BF6
S113010080838881882329F02196C0DF8991811119
S1130110FCCFE1ECF0E0808180648083DF91CF91BB
S11301200895E0910801F0910901809106019091F0
S11301300701E817F90751F180818093C600809187
S1130140080190910901019622E08937920728F469
S1130150909309018093080106C089E791E0909388
S11301600901809308018091750190917601A09115
S11301707701B09178010197A109B10980937501C4
S113018090937601A0937701B093780108951F921C
S11301900F920FB60F9211242F933F934F935F93B7
S11301A06F937F938F939F93AF93BF93EF93FF933B
S11301B0B8DFFF91EF91BF91AF919F918F917F91A4
S11301C06F915F914F913F912F910F900FBE0F90C0
S11301D01F901895E0910801F091090180818093A6
S11301E0C6008091080190910901019622E08937A7
S11301F0920728F4909309018093080106C089E7C7
S113020091E09093090180930801E1ECF0E0808192
S11302108F7D80838091750190917601A091770103
S1130220B09178010197A109B10980937501909368
S11302307601A0937701B093780108951F920F92ED
S11302400FB60F9211242F933F934F935F936F93A5
S11302507F938F939F93AF93BF93EF93FF93BADFF3
S1130260FF91EF91BF91AF919F918F917F916F918A
S11302705F914F913F912F910F900FBE0F901F9060
S1130280189584B1837C84B984B18C6284B980E587
S11302908CBD81E08DBD0895442381F0282FA62FC5
S11302A0B72FE82FF92F81918EBD0DB407FEFDCF36
S11302B08EB58D938E2F821B8417A8F30895662321
S11302C061F0282FE82FF92F81918EBD0DB407FE20
S11302D0FDCF8E2F821B8617B8F308958EBD0DB403
S11302E007FEFDCF8EB50895299882EEF7DF299A8F
S11302F00895299881EEF2DF299A0895209A219A87
S11303002898299A0895CF93C62F29988062E6DF0A
S11303108C2FE4DF299ACF910895CF93DF93EEDFFA
S1130320B0DFE2DFE6DF60E787E0EDDF81E090E069
S11303301DD3EC018FE088836FE080E0E4DFCE0121
S1130340ADD381E090E012D3EC018AE288836AE2C3
S113035085E0D9DFCE01A2D381E090E007D3EC01A0
S113036086E0888366E0CFDFCE0198D381E090E019
S1130370FDD2EC016881607C6062688381E1C3DF47
S1130380688182E1C0DFCE0189D3289ADF91CF91C1
S113039008951F93CF93DF93EC01162F299881E6DC
S11303A09DDF412FBE01CE0177DF299A60E487E00B
S11303B0AADFDF91CF911F9108951F93CF93DF930D
S11303C0EB01142F2998806289DF612FCE0177DF3A
S11303D0299ADF91CF911F9108951F93CF93DF93B3
S11303E0EB01142F29987ADF412FBE01CE0154DF8F
S11303F0299ADF91CF911F910895CF93DF931F9294
S1130400CDB7DEB741E0BE016F5F7F4FE6DF898184
S11304100F90DF91CF91089587E1EFDF8095817090
S1130420089580E0EADF8F77682F636080E06BDFF8
S1130430289A0895299852DF299A08958FEFFACFC0
S11304400895009789F09093720180937101880F49
S1130450991F8CD29C01909374018093730181E065
S1130460232B19F080E0089580E00895CF92DF9265
S1130470EF92FF920F931F93CF93DF93EC016B01E5
S11304807A01122F8091710190917201C817D907D6
S1130490E0F485E090E06AD2FC010097C1F0D182DB
S11304A0C082F382E282848110FB80F900FB81F92F
S11304B08483CC0FDD1F8091730190917401C80F68
S11304C0D91FF983E88380E003C082E001C081E0A2
S11304D0DF91CF911F910F91FF90EF90DF90CF901C
S11304E00895DB01E0917101F09172018E179F076D
S11304F0F0F4880F991FE0917301F0917401E80FF3
S1130500F91F0190F081E02D309799F08281938159
S1130510B901640F751F8617970768F060817181B0
S1130520640F751FA901CD0148D380E0089582E0CE
S1130530089583E0089584E00895CF93DF931F9294
S1130540CDB7DEB781309105E9F018F0029799F143
S11305504FC0198221E030E040E050E0BE016F5FFF
S11305607F4F80E090E0BDDF8981811105C084B5B3
S11305708F7784BD5E9803C084B5806884BD89810B
S113058087BD36C0198221E030E040E050E0BE0172
S11305906F5F7F4F81E090E0A4DF8981811105C006
S11305A084B58F7D84BD5D9803C084B5806284BDAD
S11305B0898188BD1DC0198221E030E040E050E00F
S11305C0BE016F5F7F4F82E090E08BDF89818111F4
S11305D007C0E0EBF0E080818F7D80835B9805C0ED
S11305E0E0EBF0E080818062808389818093B400B5
S11305F00F90DF91CF910895CF93DF93EC01809119
S1130600710190917201C817D90730F5E091730117
S1130610F0917401CE01880F991FE80FF91F019022
S1130620F081E02D3097D1F0848181FF19C082815F
S1130630938182179307B0F0640F751FA90180811D
S11306409181BBD2E0917902F0917A02309761F006
S1130650CE01099580E009C082E007C083E005C0AF
S113066085E003C084E001C080E0DF91CF9108956C
S1130670EF92FF921F93CF93DF93EC01162F80919B
S11306807B028E7F8D7F80937B0282E08093690062
S113069081E08DBB662309F1663008F5E62EF12C66
S11306A0C70164D19093700180936F010097C9F0E2
S11306B0A701BE0182D210936E012FDE2FEF81EECF
S11306C094E0215080409040E1F700C00000412FA9
S11306D0BE018BE072DE80E005C084E603C085E6DF
S11306E001C081E0DF91CF911F91FF90EF900895B9
S11306F0FF920F931F93CF93DF9380917B0281FF2F
S113070025C080E290E032D1EC01009709F160E26B
S113071040DEFD800E811F817FDE90917B0280FB95
S113072091F990937B02F5FE0CC02F2D2F7130E0D0
S113073040E050E0BE01685F7F4FC8015DDF182FC5
S113074001C010E0CE01AAD1812F03C080E001C016
S113075081E0DF91CF911F910F91FF9008951F9237
S11307600F920FB60F9211242F933F934F935F93E1
S11307706F937F938F939F93AF93BF93CF93EF9395
S1130780FF935CDEC82F85FF06C04BDE80917B02A1
S11307908E7F80937B02C6FF05C080917B028260BE
S11307A080937B026C2F607387E0ADDDFF91EF9146
S11307B0CF91BF91AF919F918F917F916F915F91F5
S11307C04F913F912F910F900FBE0F901F9018954E
S11307D0FF920F931F93CF93DF93C82F162F862F6B
S11307E090E0C4D0F82E092F412F682F792F8C2F39
S11307F0F4DD112331F0CF2DD02F899147DC115036
S1130800E1F78F2D902F4AD18DE491E072DCDF91D6
S1130810CF911F910F91FF900895CF93DF9300D054
S113082000D01F92CDB7DEB788E68AB983E084BDD5
S113083084E085BD91E090936E009093B000809326
S1130840B10014DC1DDC789483E090E0FADD81E0F3
S113085090E08CD001E021E041E050E0BC0180E078
S113086090E004DE81E090E081D021E041E050E0BE
S1130870BC0181E090E0FADD81E090E077D021E0F6
S113088041E050E0BC0182E090E0F0DD8DE992E0CF
S113089090937A02809379028FE091E02ADC85E0DC
S11308A0EAE0F1E0DE01119601900D928A95E1F7FC
S11308B080E291E01EDC65E0CE010196D9DE8FE492
S11308C091E017DC10E061E0812F82DF1F5F1A30B6
S11308D0D1F765E08AE07CDF65E08BE079DF1CE03E
S11308E061E0812F75DF1F5F1031D1F765E080E192
S11308F06FDF11E161E0812F6BDF1F5F1831D1F7EA
S113090061E08CE165DF61E08DE162DF02E611E028
S113091083B7817F83BF83B7816083BF8895E8DE17
S1130920F82E8823A9F380E190E020D0D82EE92E78
S11309301F92FF921F930F939F938F9347D18D2DF7
S11309409E2DD7DB8D2D9E2DA9D00F900F900F904B
S11309500F900F900F90DCCF1F920F920FB60F9253
S113096011240F900FBE0F901F901895CF93DF9313
S11309708230910510F482E090E0E0917E02F091E3
S11309807F0220E030E0A0E0B0E0309739F1408110
S1130990518148175907B8F04817590771F48281F3
S11309A09381109729F013969C938E9312972CC0E1
S11309B090937F0280937E0227C02115310531F088
S11309C04217530718F0A901DB0101C0EF019A0196
S11309D0BD01DF010280F381E02DD7CF2115310560
S11309E0F9F0281B390B2430310580F48A819B816E
S11309F06115710521F0FB019383828304C09093F8
S1130A007F0280937E02FE01329644C0FE01E20F13
S1130A10F31F8193919322503109398328833AC07B
S1130A2020917C0230917D02232B41F4209102011C
S1130A303091030130937D0220937C0220910001C8
S1130A40309101012115310541F42DB73EB7409194
S1130A50040150910501241B350BE0917C02F091B7
S1130A607D02E217F307A0F42E1B3F0B281739076A
S1130A7078F0AC014E5F5F4F2417350748F04E0FF6
S1130A805F1F50937D0240937C028193919302C037
S1130A90E0E0F0E0CF01DF91CF910895CF93DF93B1
S1130AA0009709F487C0FC01329713821282C09127
S1130AB07E02D0917F02209781F420813181280F1A
S1130AC0391F80917C0290917D028217930779F5FA
S1130AD0F0937D02E0937C026DC0DE0120E030E003
S1130AE0AE17BF0750F412964D915C9113979D0178
S1130AF04115510509F1DA01F3CFB383A283408193
S1130B005181840F951F8A179B0771F48D919C91D5
S1130B101197840F951F02969183808312968D916D
S1130B209C911397938382832115310529F4F093C3
S1130B307F02E0937E023EC0D9011396FC93EE93AC
S1130B4012974D915D91A40FB51FEA17FB0779F435
S1130B5080819181840F951F0296D90111969C93EF
S1130B608E938281938113969C938E931297E0E0E7
S1130B70F0E08A819B81009719F0FE01EC01F9CF26
S1130B80CE01029628813981820F931F20917C0225
S1130B9030917D022817390769F4309729F41092AF
S1130BA07F0210927E0202C013821282D0937D02D1
S1130BB0C0937C02DF91CF910895FB01DC0102C058
S1130BC001900D9241505040D8F70895AEE0B0E046
S1130BD0EBEEF5E091C20D891E8986E08C831A83C1
S1130BE009838FEF9FE79E838D83AE01475E5F4F3E
S1130BF06F89788DCE01019608D0EF81F885E00FDA
S1130C00F11F10822E96E4E093C2ACE0B0E0EAE07B
S1130C10F6E064C27C016B018A01FC011782168232
S1130C20838181FFB0C1CE0101964C01F70193810C
S1130C30F60193FD859193FF81916F01882309F457
S1130C409EC1853239F493FD859193FF81916F01A3
S1130C50853221F4B70190E0B1D1E8CF512C312C89
S1130C6020E02032A0F48B3269F030F4803259F065
S1130C70833269F420612CC08D3239F0803339F429
S1130C80216026C02260246023C0286021C027FD83
S1130C9027C030ED380F3A3078F426FF06C0FAE06A
S1130CA05F9E300D1124532E13C08AE0389E300D00
S1130CB01124332E20620CC08E3221F426FD5FC134
S1130CC0206406C08C3611F4206802C0883641F4D2
S1130CD0F60193FD859193FF81916F018111C1CF3D
S1130CE0982F9F7D9554933028F40C5F1F4FFFE39A
S1130CF0F9830DC0833631F0833771F0833509F001
S1130D0057C021C0F801808189830E5F1F4F44249E
S1130D104394512C540114C03801F2E06F0E711C3D
S1130D20F801A080B18026FF03C0652D70E002C0E9
S1130D306FEF7FEFC5012C8736D12C0183012C8501
S1130D402F77222E16C03801F2E06F0E711CF801C5
S1130D50A080B18026FF03C0652D70E002C06FEF54
S1130D607FEFC5012C8714D12C012C852068222EFD
S1130D70830123FC19C0832D90E048165906A0F482
S1130D80B70180E290E01AD13A94F5CFF50127FC3F
S1130D90859127FE81915F01B70190E00FD1311059
S1130DA03A94F1E04F1A51084114510479F7DEC026
S1130DB0843611F0893631F5F80127FF07C06081C8
S1130DC07181828193810C5F1F4F08C060817181A2
S1130DD0882777FD8095982F0E5F1F4F2F76B22EB0
S1130DE097FF09C090958095709561957F4F8F4FBF
S1130DF09F4F2068B22E2AE030E0A40111D1A82E22
S1130E00A81843C0853729F42F7EB22E2AE030E09B
S1130E1025C0F22FF97FBF2E8F36C1F018F4883524
S1130E2079F0ADC0803719F0883721F0A8C02F2F92
S1130E302061B22EB4FE0DC08B2D8460B82E09C083
S1130E4024FF0AC09F2F9660B92E06C028E030E028
S1130E5005C020E130E002C020E132E0F801B7FE35
S1130E6007C060817181828193810C5F1F4F06C02E
S1130E706081718180E090E00E5F1F4FA401D0D0AB
S1130E80A82EA818FB2DFF77BF2EB6FE0BC02B2D66
S1130E902E7FA51450F4B4FE0AC0B2FC08C02B2D5A
S1130EA02E7E05C07A2C2B2D03C07A2C01C0752C04
S1130EB024FF0DC0FE01EA0DF11D8081803311F481
S1130EC0297E09C022FF06C07394739404C0822F44
S1130ED0867809F0739423FD12C020FF06C05A2CB3
S1130EE0731418F4530C5718732C731460F4B7016B
S1130EF080E290E02C8762D073942C85F6CF731433
S1130F0010F4371801C0312C24FF11C0B70180E35D
S1130F1090E02C8753D02C8522FF16C021FF03C0FC
S1130F2088E590E002C088E790E0B7010CC0822F0A
S1130F30867851F021FD02C080E201C08BE227FDDA
S1130F408DE2B70190E03AD0A51430F4B70180E304
S1130F5090E034D05A94F8CFAA94F401EA0DF11D2C
S1130F608081B70190E02AD0A110F6CF332009F494
S1130F705DCEB70180E290E021D03A94F7CFF7013B
S1130F808681978102C08FEF9FEF2C96E2E1C2C069
S1130F90FC010590615070400110D8F78095909540
S1130FA08E0F9F1F0895FC01615070400190011045
S1130FB0D8F7809590958E0F9F1F08950F931F93D8
S1130FC0CF93DF93182F092FEB018B8181FD03C091
S1130FD08FEF9FEF20C082FF10C04E815F812C8174
S1130FE03D81421753077CF4E881F9819F012F5F0B
S1130FF03F4F39832883108306C0E885F985812F04
S11310000995892B29F72E813F812F5F3F4F3F831D
S11310102E83812F902FDF91CF911F910F910895EF
S1131020FA01AA27283051F1203181F1E8946F9315
S11310306E7F6E5F7F4F8F4F9F4FAF4FB1E03ED0BB
S1131040B4E03CD0670F781F891F9A1FA11D680F59
S1131050791F8A1F911DA11D6A0F711D811D911D8C
S1131060A11D20D009F468943F912AE0269F112401
S11310703019305D3193DEF6CF010895462F477065
S1131080405D4193B3E00FD0C9F7F6CF462F4F70C0
S1131090405D4A3318F0495D31FD4052419302D01E
S11310A0A9F7EACFB4E0A6959795879577956795C4
S11310B0BA95C9F700976105710508959B01AC01C4
S11310C00A2E06945795479537952795BA95C9F7EB
S11310D0620F731F841F951FA01D08952F923F92C6
S11310E04F925F926F927F928F929F92AF92BF9234
S11310F0CF92DF92EF92FF920F931F93CF93DF93E0
S1131100CDB7DEB7CA1BDB0B0FB6F894DEBF0FBE3C
S1131110CDBF09942A88398848885F846E847D8489
S11311208C849B84AA84B984C884DF80EE80FD808B
S11311300C811B81AA81B981CE0FD11D0FB6F89401
S1111140DEBF0FBECDBFED010895F894FFCFC2
S113114E0000800220007901790142424242434963
S113115E4E49545F434F52453A20444F4E450A0080
S113116E494E49545F52454D4F54452E52585F4196
S113117E4444523A2030783432203078343220309D
S113118E783432203078343220307834330A0049BF
S113119E4E49545F52454D4F54453A20444F4E45A7
S11111AE0A004552524F523A2025750A00009D
S9030000FC
